S01100004441345F5461736B312E7372656337
S11300000C9434000C943E000C943E000C943E007E
S11300100C943E000C943E000C943E000C943E0064
S11300200C943E000C943E000C943E000C943E0054
S11300300C943E000C943E000C943E000C943E0044
S11300400C943E000C943E000C943E000C943E0034
S11300500C943E000C943E000C943E000C943E0024
S11300600C943E000C943E0011241FBECFEFD8E048
S1130070DEBFCDBF0E944B000C94A6000C94000080
S113008088E290E0EFECF7E03197F1F700C0000070
S11300900197C1F7089580E48AB98AE084B986EEAD
S11300A087BD91EC94BD43E045BDA8E8B0E026EEE1
S11300B030E011963C932E939093800040938100FE
S11300C0E3EBF0E080839093B00094E09093B10070
S11300D087BD11963C932E93808306EECDECF12CD4
S11300E0D1E016EE912C0F2EF6EEEF2EF02D0F2E02
S11300F0F8E8AF2EB12CF02D0F2EF3EBCF2ED12C30
S1130100F02D0BC0CE2DD93040F0F39419511E318F
S113011018F4D92D1E2D01C0D92D88E08F1538F47F
S113012009510E3118F4F92C0E2D01C0F92C0E943E
S11301304000C7BD812F90E0F50191838083F601D3
S11301400083DF5FC951CE31E8F2DDCFF894FFCFF1
S9030000FC
