:020000020000FC
:0200000016C028
:10002C0025C008E00EBF0FEF0DBF209A219A229A2F
:10003C00239A249A259A269A279A389A3D9A3C9A7A
:10004C0000E005B908B940E050E08FE080938900EA
:10005C0082E48093880080E0809380008DE0809320
:10006C00810082E080936F007894FFCF439545B96F
:10007C005395553041F05A3051F05F3061F05431A6
:10008C0071F00C945A0000E208B90C945A0000E18B
:10009C0008B90C945A0000E308B90C945A0000E01B
:1000AC0008B950E00C945A0082E080931600189521
:00000001FF
