:020000020000FC
:10000000209A219A229A239A249A259A269A279A04
:10001000389A3D9A3C9A00E005B908B940E050E0B2
:100020000E943400439545B95395553041F05A30FC
:1000300051F05F3061F0543171F00C94300000E207
:1000400008B90C94300000E108B90C94300000E3CA
:1000500008B90C94300000E008B950E00C9430006E
:100060000E9434000C9410000F931F932F9309E10A
:100070001EE524ED00002A95E9F71A95D1F70A95B7
:0A008000B9F72F911F910F91089519
:00000001FF
