:100000000C9434000C943E000C943E000C943E0082
:100010000C943E000C943E000C943E000C943E0068
:100020000C943E000C943E000C943E000C943E0058
:100030000C943E000C943E000C943E000C943E0048
:100040000C943E000C943E000C943E000C943E0038
:100050000C943E000C943E000C943E000C943E0028
:100060000C943E000C943E0011241FBECFEFD8E04C
:10007000DEBFCDBF0E944B000C9489000C940000A1
:1000800089E190E0EFE1FEE43197F1F700C0000074
:100090000197C1F708958FEF84B980E387B90E9473
:1000A000400000E010E0C1E0D0E06894BB24B4F868
:1000B0000F2EF0E3CF2EF02DE12CF12C6894DD24EF
:1000C000D5F802C0CE2DDF2DC5B90F5F1F4F0A3006
:1000D000110571F024F40530110541F010C00F3006
:1000E000110541F00431110539F009C0D8B807C035
:1000F000B8B805C0C8B803C018B80E2D1F2D0E948F
:1001000040000E9440002196CF3FD10509F0D4F66F
:06011000DBCFF894FFCFE5
:00000001FF
