S01100004441325F5461736B342E7372656336
S11300000C9434000C943E000C943E000C943E007E
S11300100C943E000C943E000C943E000C943E0064
S11300200C943E000C943E000C943E000C943E0054
S11300300C943E000C943E000C943E000C943E0044
S11300400C943E000C943E000C943E000C943E0034
S11300500C943E000C943E000C943E000C943E0024
S11300600C943E000C943E0011241FBECFEFD8E048
S1130070DEBFCDBF0E944B000C9454000C940000D2
S113008089E190E0EFE1FEE43197F1F700C0000070
S11300900197C1F70895389A18B80E944000409A11
S10F00A00E94400018B8F9CFF894FFCF7C
S9030000FC
