S01100004441355F5461736B322E7372656335
S11300000C9434000C943E000C943E000C943E007E
S11300100C943E000C943E000C943E000C943E0064
S11300200C943E000C943E000C943E000C943E0054
S11300300C943E000C943E000C943E000C943E0044
S11300400C943E000C943E000C943E000C943E0034
S11300500C943E000C943E000C943E000C943E0024
S11300600C943E000C943E0011241FBECFEFD8E048
S1130070DEBFCDBF0E9450000C9443020C940000DC
S1130080009769F020E030E0EFECF7E03197F1F70A
S113009000C000002F5F3F4F28173907A9F70895C4
S11300A0ECE7F0E0808180648083EAE7F0E080811F
S11300B0836880838FEF84B9CAE7D0E008E710E053
S11300C00F2EF6E0CF2EF02D0F2EFCE0DF2EF02DBC
S11300D00F2EF9E0EF2EF02D0F2EF3E0FF2EF02D72
S11300E0888180648883888186FDFDCFF8016081E2
S11300F071816115710519F485B185B9F1CFC5B860
S113010080E090E00E94480124E237E94FE75AE397
S11301100E94D6019B01AC0160E070E080E89FE39F
S11301200E94AC0020E030E048E452E40E94D60192
S11301300E9419014B015C01CB010E944000D5B81B
S1130140C4010E944000E5B8C4010E944000F5B813
S1130150C4010E944000C4CF5058BB27AA270E9464
S1130160C4000C949C010E948E0138F00E949501F9
S113017020F039F49F3F19F426F40C948B010EF40B
S1130180E095E7FB0C948501E92F0E94AD0158F33B
S1130190BA17620773078407950720F079F4A6F568
S11301A00C94CF010EF4E0950B2EBA2FA02D0B0169
S11301B0B90190010C01CA01A0011124FF27591BA8
S11301C099F0593F50F4503E68F11A16F040A22FAE
S11301D0232F342F4427585FF3CF4695379527951F
S11301E0A795F0405395C9F77EF41F16BA0B620B1E
S11301F0730B840BBAF09150A1F0FF0FBB1F661F65
S1130200771F881FC2F70EC0BA0F621F731F841FA7
S113021048F4879577956795B795F7959E3F08F0CD
S1130220B0CF9395880F08F09927EE0F979587958F
S113023008950E94B50188F09F5798F0B92F992727
S1130240B751B0F0E1F0660F771F881F991F1AF0BD
S1130250BA95C9F714C0B13091F00E94CF01B1E052
S113026008950C94CF01672F782F8827B85F39F051
S1130270B93FCCF3869577956795B395D9F73EF456
S113028090958095709561957F4F8F4F9F4F0895FE
S1130290E89409C097FB3EF490958095709561951C
S11302A07F4F8F4F9F4F9923A9F0F92F96E9BB27D2
S11302B09395F695879577956795B795F111F8CF4E
S11302C0FAF4BB0F11F460FF1BC06F5F7F4F8F4FB9
S11302D09F4F16C0882311F096E911C0772321F0AF
S11302E09EE8872F762F05C0662371F096E8862F47
S11302F070E060E02AF09A95660F771F881FDAF79E
S1130300880F9695879597F9089597F99F6780E8E0
S113031070E060E008959FEF80EC089500240A9453
S11303201616170618060906089500240A941216CC
S11303301306140605060895092E0394000C11F4FF
S1130340882352F0BB0F40F4BF2B11F460FF04C0AC
S11303506F5F7F4F8F4F9F4F089557FD9058440F05
S1130360551F59F05F3F71F04795880F97FB991F10
S113037061F09F3F79F087950895121613061406CD
S1130380551FF2CF4695F1DF08C01616170618065A
S1130390991FF1CF86957105610508940895E89435
S11303A0BB2766277727CB0197F908950E94E901B7
S11303B00C949C010E948E0138F00E94950120F05B
S11303C0952311F00C9485010C948B0111240C9449
S11303D0D0010E94AD0170F3959FC1F3950F50E0D9
S11303E0551F629FF001729FBB27F00DB11D639FE3
S11303F0AA27F00DB11DAA1F649F6627B00DA11D89
S1130400661F829F2227B00DA11D621F739FB00D2E
S1130410A11D621F839FA00D611D221F749F33279E
S1130420A00D611D231F849F600D211D822F762F37
S11304306A2F11249F5750409AF0F1F088234AF014
S1130440EE0FFF1FBB1F661F771F881F9150504080
S1130450A9F79E3F510580F00C9485010C94D001BE
S11304605F3FE4F3983ED4F3869577956795B79507
S1130470F795E7959F5FC1F7FE2B880F911D969521
S10D0480879597F90895F894FFCFCB
S9030000FC
