:100000000C9424010C9441010C9441010C94410185
:100010000C9441010C9441010C9441010C94410158
:100020000C9441010C9441010C9441010C94410148
:100030000C9441010C9441010C9441010C94410138
:100040000C9441010C9441010C9441010C94410128
:100050000C9441010C946D010C9441010C944101EC
:100060000C9441010C944101000000000000005F6D
:1000700000000007000700147F147F14242A7F2A41
:10008000122313086462364955225000050300000C
:10009000001C2241000041221C0014083E081408E4
:1000A000083E0808005030000008080808080060F2
:1000B00060000020100804023E5149453E00427F86
:1000C000400042615149462141454B311814127F8D
:1000D0001027454545393C4A494930017109050316
:1000E0003649494936064949291E0036360000007E
:1000F0005636000008142241001414141414004150
:100100002214080201510906324979413E7E11113B
:10011000117E7F494949363E414141227F4141227A
:100120001C7F494949417F090909013E4149497AF2
:100130007F0808087F00417F41002040413F017F48
:10014000081422417F404040407F020C027F7F0420
:1001500008107F3E4141413E7F090909063E415159
:10016000215E7F09192946464949493101017F012C
:10017000013F4040403F1F2040201F3F4038403F4C
:100180006314081463070870080761514945430068
:100190007F41410002040810200041417F00040219
:1001A0000102044040404040000102040020545439
:1001B00054787F48444438384444442038444448C0
:1001C0007F3854545418087E0901020C5252523E92
:1001D0007F0804047800447D40002040443D007FB7
:1001E0001028440000417F40007C041804787C08FB
:1001F00004047838444444387C1414140808141453
:10020000187C7C080404084854545420043F44409B
:10021000203C4040207C1C2040201C3C4030403C86
:1002200044281028440C5050503C4464544C440022
:100230000836410000007F00000041360800100829
:10024000081008000000000011241FBECFEFD8E006
:10025000DEBFCDBF11E0A0E0B1E0ECE0F8E002C00D
:1002600005900D92AC30B107D9F723E0ACE0B1E0D6
:1002700001C01D92AD30B207E1F70E9443010C941A
:1002800004040C9400000E945A020E949B02ECE7B6
:10029000F0E01082808180648083EAE7F0E0808172
:1002A0008660808380818062808310927B00808161
:1002B000806880838081886080838081806480837F
:1002C0007894FFCF84E690E0EFE1FEE43197F1F718
:1002D00000C000000197C1F708951F920F920FB65A
:1002E0000F921124CF92DF92EF92FF922F933F93C0
:1002F0004F935F936F937F938F939F93AF93BF932E
:10030000EF93FF93809178009091790090930C0384
:1003100080930B0380910B0390910C03A0E0B0E05D
:100320008093060390930703A0930803B0930903F7
:100330008091060390910703A0910803B0910903EF
:10034000AC01BD01440F551F661F771F440F551F99
:10035000661F771F840F951FA61FB71F8093060384
:1003600090930703A0930803B09309032091060319
:10037000309107034091080350910903A4E6B0E0CF
:100380000E94EA03609306037093070380930803B7
:10039000909309038091060390910703A0910803AD
:1003A000B0910903072E7AE0B695A79597958795A2
:1003B0007A95D1F7702D8093060390930703A0934D
:1003C0000803B093090360910603709107038091BD
:1003D0000803909109030F2EFAE0CF2ED12CE12CC7
:1003E000F12CF02DA70196010E94C80320930A0367
:1003F00060E080E00E949D0361E080E091E00E9467
:100400008A036AE080E00E949D0380910A0364E011
:10041000805D0E94D902609106037091070380916C
:10042000080390910903A70196010E94C8036093F5
:100430000A0380910A0364E0805D0E94D9020E9451
:10044000A2030E946201FF91EF91BF91AF919F9132
:100450008F917F916F915F914F913F912F91FF907D
:10046000EF90DF90CF900F900FBE0F901F901895D8
:100470002898662311F02A9A15C02A9813C0AC0157
:10048000022E02C0559547950A94E2F740FF02C03C
:100490002B9A01C02B982D9A2D982150310978F76D
:1004A000289A089527E030E090E0E9CF60E00E94CC
:1004B00038020895CF93DF93209A219A229A239AA3
:1004C000259A299A289A83EC99E00197F1F700C0C0
:1004D000000029988BE594E40197F1F700C0000033
:1004E000299A289881E20E94560283E10E945602CE
:1004F00086E00E94560282EC0E94560280E20E9430
:10050000560289E00E94560280E80E94560280E46A
:100510000E945602C8EFD1E061E080E00E943802FC
:100520002197D1F788E00E9456028CE00E94560283
:10053000DF91CF91089580E80E94560280E40E94E6
:1005400056021092040310920503ECE0F1E084E0FF
:1005500093E01192E817F907E1F70895262F269501
:100560002695269590E034E5239F800D911D11245A
:10057000442379F0FC01E45FFE4F677081E090E076
:1005800002C0880F991F6A95E2F79081892B8083BA
:100590000895FC01E45FFE4F677081E090E002C0C7
:1005A000880F991F6A95E2F780959081892380834F
:1005B00008954F925F926F927F928F929F92AF9227
:1005C000BF92CF92DF92EF92FF920F931F93CF9340
:1005D000DF93562E262F30E04901880C991C880C99
:1005E000991C820E931E181419040CF05EC0890128
:1005F000000F111F000F111F000F111F021B130B03
:10060000612CA82EB12CC50180975C01AA0CBB1CE3
:10061000AA0CBB1CA80EB91E412C0F2EF5E0CF2E44
:10062000F3E0DF2EF02D0F2EF4E0EF2EF3E0FF2E9F
:10063000F02D2DC0FE01249130E0872D652D0E9404
:10064000BC0302C0359527958A95E2F720FF0AC0C2
:10065000F6016081670DF701808141E0860D0E94FF
:10066000AE0209C0F6016081670DF7018081442D5B
:10067000860D0E94AE027394872D90E0801791073B
:10068000CCF26394862D90E08815990574F41016C9
:100690001106BCF7862D652D0E94BC03E501C80F2D
:1006A000D11DC859DF4F742CC5CF8091040391E050
:1006B000980F852D880F880F850D890F843518F4C4
:1006C000809304030EC010920403E5E0F3E0808100
:1006D00091E0980F852D880F880F880F8519890F55
:1006E000808380910503803320F0109204031092E0
:1006F0000503DF91CF911F910F91FF90EF90DF9055
:10070000CF90BF90AF909F908F907F906F905F90B1
:100710004F9008951F93CF93DF93EC018881882336
:1007200041F0162F2196612F0E94D90289918111E3
:10073000FACFDF91CF911F910895809304036093C6
:10074000050308950F931F93CF93DF9380E80E94D2
:10075000560280E40E945602CCE0D1E004E013E0AF
:1007600061E089910E943802C017D107C9F7DF9173
:10077000CF911F910F910895991B79E004C0991FA3
:10078000961708F0961B881F7A95C9F780950895EB
:10079000A1E21A2EAA1BBB1BFD010DC0AA1FBB1F85
:1007A000EE1FFF1FA217B307E407F50720F0A21BF7
:1007B000B30BE40BF50B661F771F881F991F1A9464
:1007C00069F760957095809590959B01AC01BD018E
:1007D000CF0108950E94F503A59F900DB49F900D41
:1007E000A49F800D911D11240895A29FB001B39F75
:1007F000C001A39F700D811D1124911DB29F700D2A
:0C080000811D1124911D0895F894FFCF74
:0C080C0046616872656E686569740000E2
:00000001FF
