S01100004441335F5461736B312E7372656338
S11300000C9434000C9446000C9446000C94460066
S11300100C9446000C9446000C9446000C94460044
S11300200C9446000C9446000C9446000C94460034
S11300300C9446000C9446000C9446000C94460024
S11300400C9446000C9446000C9446000C94460014
S11300500C9446000C947F000C9446000C944600CB
S11300600C9446000C94460011241FBECFEFD8E038
S1130070DEBFCDBF21E0A0E0B1E001C01D92A730FA
S1130080B207E1F70E9448000C947B010C94000035
S113009083E38093C40088E08093C10086E080936A
S11300A0C200ECE7F0E01082808180648083EAE79C
S11300B0F0E08081866080838081806280831092FA
S11300C07B008081806880838081886080838081D8
S11300D0806480837894FFCFE0ECF0E0908195FF1A
S11300E0FDCF8093C600089584E690E0EFE1FEE43E
S11300F03197F1F700C000000197C1F708951F92EE
S11301000F920FB60F921124CF92DF92EF92FF92CB
S11301102F933F934F935F936F937F938F939F930B
S1130120AF93BF93EF93FF93809178009091790000
S11301309093060180930501809105019091060139
S1130140A0E0B0E08093000190930101A09302012C
S1130150B09303018091000190910101A0910201EB
S1130160B0910301AC01BD01440F551F661F771FF9
S1130170440F551F661F771F840F951FA61FB71FB7
S11301808093000190930101A0930201B0930301B5
S1130190209100013091010140910201509103012D
S11301A0A4E6B0E00E946101609300017093010134
S11301B080930201909303018091000190910101C9
S11301C0A0910201B0910301072E7AE0B695A7959C
S11301D0979587957A95D1F7702D80930001909328
S11301E00101A0930201B093030160910001709199
S11301F0010180910201909103010F2EFAE0CF2EAC
S1130200D12CE12CF12CF02DA70196010E943F0185
S11302102093040180910401805D0E946C00609130
S11302200001709101018091020190910301A701E5
S113023096010E943F016093040180910401805D56
S11302400E946C008AE00E946C008DE00E946C00A9
S11302500E947400FF91EF91BF91AF919F918F9194
S11302607F916F915F914F913F912F91FF90EF900C
S1130270DF90CF900F900FBE0F901F901895A1E2C2
S11302801A2EAA1BBB1BFD010DC0AA1FBB1FEE1F0C
S1130290FF1FA217B307E407F50720F0A21BB30B57
S11302A0E40BF50B661F771F881F991F1A9469F7D3
S11302B060957095809590959B01AC01BD01CF012F
S11302C008950E946C01A59F900DB49F900DA49F6A
S11302D0800D911D11240895A29FB001B39FC00108
S11302E0A39F700D811D1124911DB29F700D811D5E
S10D02F01124911D0895F894FFCF26
S9030000FC
